:020000040800F2
:10000000B04E0020410300089B1C00088B1B000819
:10001000991C000897070008C9210008000000008B
:100020000000000000000000000000008102000845
:100030004908000800000000DD020008251D000836
:100040005B0300085B0300085B0300085B03000818
:100050005B0300085B0300085B0300085B03000808
:100060005B0300085B0300085B0300085B030008F8
:100070005B0300085B030008990700085B030008A6
:100080005B0300085B0300085B0300085B030008D8
:100090005B0300085B0300085B0300085B030008C8
:1000A0005B0300085B0300085B0300085B030008B8
:1000B0005B0300085B0300085B0300085B030008A8
:1000C0005B0300085B0300085B0300085B03000898
:1000D0005B0300085B0300085B030008BD21000808
:1000E0005B0300085B0300085B0300085B03000878
:1000F0005B030008F91D00085B0300085B030008B0
:100100005B0300085B0300085B0300085B03000857
:100110005B0300085B0300085B0300085B03000847
:100120005B0300085B0300085B0300085B03000837
:100130005B0300085B0300085B0300085B03000827
:100140005B0300085B0300085B0300085B03000817
:100150005B0300085B0300085B0300085B03000807
:100160005B0300085B0300085B0300085B030008F7
:100170005B0300085B0300080000000000000000B3
:100180005B0300085B0300085B0300085B030008D7
:100190005B0300085B030008000000005B0300082D
:1001A0005B0300085B030008000000000000000083
:1001B0005B03000800000000000000005B03000873
:1001C0005B0300085B0300085B0300085B03000897
:1001D0005B0300085B03000800F002F800F041F840
:1001E0000AA090E8000C82448344AAF10107DA4592
:1001F00001D100F036F8AFF2090EBAE80F0013F0A3
:10020000010F18BFFB1A43F001031847302C000000
:10021000502C0000103A24BF78C878C1FAD8520791
:1002200024BF30C830C144BF04680C607047000070
:100230000023002400250026103A28BF78C1FBD8EF
:10024000520728BF30C148BF0B607047642900F0D7
:100250005981002070471FB502F0C6FD1FBD10B5C3
:1002600010BD00F05EFA1146FFF7F5FF01F0BEFF8A
:1002700000F07CFA03B4FFF7F2FF03BC00F084FA4D
:100280002C4B19680868B0E8F04F80F30988BFF379
:100290006F8F4FF0000080F311887047000000005E
:1002A00008480068006880F308884FF0000080F379
:1002B000148862B661B6BFF34F8FBFF36F8F00DF54
:1002C00000BF00BF08ED00E0DFF80C00016841F45A
:1002D00070010160704700BF88ED00E0EFF3098016
:1002E000BFF36F8F134B1A681EF0100F08BF20ED7D
:1002F000108A20E9F04F106009B44FF0500080F3ED
:100300001188BFF34F8FBFF36F8F02F085FB4FF063
:10031000000080F3118809BC19680868B0E8F04F44
:100320001EF0100F08BFB0EC108A80F30988BFF3ED
:100330006F8F7047B8000020EFF305807047000012
:100340000948804709480047FEE7FEE7FEE7FEE769
:10035000FEE7FEE7FEE7FEE7FEE7FEE704480549A5
:10036000054A064B70470000E91D0008D901000846
:10037000B0420020B04E0020B0460020B046002021
:1003800053EA020C00F069802DE9F04B4FF00006B3
:10039000002B1FBFB3FA83F503FA05F424FA05F620
:1003A0005E4012BF1643B2FA82F502FA05F4C5F1B7
:1003B00020051EBF22FA05FC44EA0C04203556EA4B
:1003C000044C4FEA144418BF641C4FF000084FF06F
:1003D0000009904271EB030C39D3002919BFB1FA1F
:1003E00081F701FA07F6B0FA80F700FA07F6C7F1CD
:1003F00020071EBF20FA07FC46EA0C062037B6FB92
:10040000F4FCA7EB0507103F07F01F0BCBF120060C
:100410000CFA0BFB2CFA06F644BFB3460026202F3D
:10042000A4BF5E464FF0000B5BEA060C08BF4FF01E
:10043000010B19EB0B09ABFB027C48EB0608C01B58
:1004400006FB02CC0BFB03CC71EB0C01C1E70B46A6
:10045000024641464846BDE8F08B13B54FF0000018
:100460004FF00001AFF30080BDE81C407047000072
:100470000FB41CB5084B06AA7B446946009005984A
:1004800000F037F904460020694600F045F920469F
:100490001CBC5DF814FB00009D0200002DE9F0413A
:1004A0000E460446002020622046E168884730B3AB
:1004B000252805D0D4E901219047206A401CF2E7A5
:1004C000E168204600278847050018D0A5F14100C3
:1004D000192802D820354FF40067324629462046B5
:1004E0002760FFF7B3FE40B1012804D0F61D26F0C7
:1004F00007060836D8E7361DD6E72846DAE7206A29
:10050000BDE8F0812DE9F041064600241068752908
:10051000314616A510D0AFF30080002802DA404221
:1005200013A507E031688A0701D512A502E0490743
:1005300004D511A5012401E0AFF3008000210A22B7
:1005400006F1240709E0B0FBF2FCB0FBF2F302FB7A
:100550001C00303078541846491C0028F3D123463B
:100560002A463046BDE8F04100F064B800000000C3
:100570002D0000002B0000002000000010B5203AE4
:10058000C0F00B80B1E81850203AA0E81850B1E84C
:100590001850A0E81850BFF4F5AF5FEA027C24BF02
:1005A000B1E81850A0E8185044BF18C918C0BDE8F9
:1005B00010405FEA827C24BF51F8043B40F8043BC2
:1005C00008BF7047D20728BF31F8023B48BF11F877
:1005D000012B28BF20F8023B48BF00F8012B7047D1
:1005E0004FF0000200B5134694469646203922BFCC
:1005F000A0E80C50A0E80C50B1F12001BFF4F7AF17
:10060000090728BFA0E80C5048BF0CC05DF804EBF8
:10061000890028BF40F8042B08BF704748BF20F866
:10062000022B11F0804F18BF00F8012B7047704764
:10063000704770472DE9F0470D46994692460446AB
:1006400000F124080168880604D5E06921F0100152
:10065000216000E00120A84201DD471B00E00027E7
:10066000A1697A1902EB0900081AA0612078C00676
:1006700002D42046AFF30080002608E0D4E901212F
:100680001AF806009047206A401C761C20624E45EE
:10069000F4DB2078C0060AD52046AFF3008006E0E0
:1006A000D4E9012130209047206A401C2062381E86
:1006B000A7F10107F4DC07E0D4E9012118F80500EF
:1006C0009047206A401C2062281EA5F10105F3DC3A
:1006D0002046AFF300802078000602D50220BDE856
:1006E000F0870120FBE7000001694A1C02610878DD
:1006F000704700B58FB0CDE9013100210591054962
:100700007944CDE9031011466846FFF7C7FE0FB0E4
:1007100000BD0000E5FFFFFF0A6802F8010B0A6058
:100720007047754600F02CF8AE4605006946534602
:1007300020F00700854618B020B5FFF70FFEBDE892
:1007400020404FF000064FF000074FF000084FF038
:10075000000B21F00701AC46ACE8C009ACE8C009C9
:10076000ACE8C009ACE8C0098D46704710B5044636
:10077000AFF300802046BDE81040FFF77BBD0000CE
:10078000004870475042002001491820ABBEFEE7E8
:10079000260002007047FEE7014800F0B3B80000F1
:1007A0006402002001681823CAB2103AB2FBF3F2C7
:1007B000054B6FF30901032A9B5CC36500D9091D32
:1007C0008165084670470000102E000810B50146EC
:1007D00000208B698A6A4FF0C07453B1B3F5005F93
:1007E00015D072B1012A0CD0022A0AD0032A09D1ED
:1007F00004E01AB1012A06D0022A03D1C96AC9014C
:1008000000D5012010BDC96AA142FAD010BD002A4E
:10081000F7D0012AF2D0022AF3D0032AF3D010BD78
:1008200030B50468256825F4802525600468636078
:100830008368402B036803D099600068C26030BDB4
:100840009A600068C16030BD704772B6FEE72DE95E
:10085000F0410446876D00F0BBFA064694F8350077
:100860000025022806D08020606584F834500120DD
:10087000BDE8F0812068016821F016010160206860
:10088000416921F080014161206C08B9A06C20B160
:100890002068016821F0080101602068016821F0EA
:1008A000010101600CE000F093FA801B052807D9D4
:1008B00020206065032084F8350084F83450D7E7A1
:1008C00020680068C007EED194F85C103F20884093
:1008D000B860012084F8350084F834500020C7E760
:1008E00090F83510022903D080214165012070471E
:1008F000052180F835100068016821F001010160D0
:10090000002070472DE9F84304464FF00009CDF868
:10091000009063484FF41651A56D0068B0FBF1F7E5
:100920002E6894F85C10082000FA01F131420FD0D3
:1009300021680A6852070BD50A6822F004020A608F
:1009400094F85C108840A860606D40F0010060651C
:1009500094F85C104FF0010808FA01F0304208D01A
:1009600021684969090604D5A860606D40F002005D
:10097000606594F85C1004208840304208D02168FB
:100980000968890704D5A860606D40F004006065BF
:1009900094F85C1010208840304218D02168096813
:1009A000090714D5A86020680168490304D50068C8
:1009B000000308D5A16C07E00168C90503D40168EC
:1009C00021F008010160216C09B12046884794F8A4
:1009D0005C1020208840304231D021680968C90667
:1009E0002DD5A86094F8350005282068016806D048
:1009F000490347D5006800031DD4616C1CE021F059
:100A0000160101602068416921F080014161206C7C
:100A100008B9A06C20B12068016821F008010160CC
:100A200094F85C103F208840A86084F8358084F8F2
:100A30003490216D1FE0E16B09B120468847606D5D
:100A400000282BD0606DC00714D0052084F8350035
:100A50002068016821F0010101600098401C0090AD
:100A6000B84203D820680068C007F6D184F8358002
:100A700084F83490E16C002910D001B02046BDE824
:100A8000F04308470168C905D5D4016821F0100179
:100A9000016084F8358084F83490CCE7BDE8F883B1
:100AA000B40000202DE9F041044600F091F906461B
:100AB0005CB1022084F83500002584F834502068A9
:100AC000016821F0010101600DE00120BDE8F08125
:100AD00000F07EF9801B052805D9202060650320E1
:100AE00084F83500F2E720680068C007F0D122687A
:100AF000116820480140D4E901031843D4E90336C2
:100B00003343184363691843A3691843E3691843DF
:100B1000236A18430843616A042903D1D4E90B13FB
:100B200019430843106020684069666A20F0070195
:100B300030460E43012704280CD1A06A0643E06A20
:100B400040B12046FFF742FE20B14020606584F8A6
:100B50003570BAE7206846612046FFF723FE94F817
:100B60005C203F2191408160656584F835700020EC
:100B7000ACE700003F8010E02DE9F0410446866DAF
:100B800090F83400002501280DD0012084F83400AD
:100B900094F835700020012F07D084F83400022526
:100BA0002846BDE8F0810220FBE7022784F8357073
:100BB00060652046FFF734FE94F85C103F208840C3
:100BC000B0602068016841F016010160206C20B11E
:100BD0002068016841F0080101602068016841F067
:100BE00001010160DCE700002DE9F84FDFF8ACA15E
:100BF0000022012403254FF00F090AF1040BAAF18A
:100C0000040E00BF0B6804FA02F63340B3426ED103
:100C10000F7907F00307012F01D0022F16D1876843
:100C20004FEA420805FA08FC27EA0C07D1F80CC085
:100C30000CFA08FC4CEA070CC0F808C04768B74338
:100C40000E79C6F3001696403E4346600E79F64391
:100C5000B6070AD0C6684FEA420C05FA0CF7BE4345
:100C60008F6807FA0CF73743C7600E7906F0030662
:100C7000022E10D1D60800EB8608D8F8206057075E
:100C80004FEAD76C09FA0CF7BE430F6907FA0CF765
:100C90003743C8F8207006684FEA420C05FA0CF793
:100CA000BE430F7907F0030707FA0CF737430760D5
:100CB0004E6816F4403F6BD0394E376847F4804792
:100CC0003760366822F0030706F480460096354EFA
:100CD00007EB060CDCF8086897074FEA177809FA63
:100CE00008F7BE43304FB84202D100271FE04FE063
:100CF0002E4FB84201D1012719E02D4FB84201D142
:100D0000022714E02B4FB84201D103270FE02A4FEE
:100D1000B84201D104270AE0284FB84201D1052783
:100D200005E0274FB84201D1062700E0072707FA60
:100D300008F73743CCF80878DAF800605746D1F85E
:100D400004C09E435FEACC2C00D51E433E60DBF816
:100D500000605F46D1F804C09E435FEA8C2C00D54A
:100D60001E433E60DEF800607746D1F804C09E4323
:100D70005FEA8C3C00D51E433E60084F083F3E684A
:100D8000D1F804C09E435FEACC3C00D51E433E60D0
:100D9000521C102AFFF436AFBDE8F88F083C014022
:100DA000443802400030014000000240000402408C
:100DB00000080240000C02400010024000140240F3
:100DC000001802400AB1816170470904FBE7000086
:100DD0000148806870470000A80000200248816830
:100DE0000278114481607047A80000200B4810B5BC
:100DF000016841F400710160016841F480610160A3
:100E0000016841F480710160032000F09FF80F2019
:100E100000F006F800F050F8002010BD003C024041
:100E200030B505461F4887B00024016841F4807141
:100E30000160006806A900F48070009001A800F02D
:100E400031F90498A8B100F04DF940001649174A4D
:100E5000B0FBF1F11648491E026040F2E732C0E9EA
:100E60000324C0E90114846100F04EFB040003D0A8
:100E700015E000F037F9E9E70D4800F073FB0400D6
:100E80000DD12D2000F034F8102D07D20022294674
:100E90002D2000F03BF80748056000E0012407B072
:100EA000204630BD4038024040420F000020004044
:100EB00018050020AC0000200C4882B0016841F405
:100EC00080410160006800F4804000900748001FE6
:100ED000016841F0805101600068002200F08050FC
:100EE00000900F21901E02B000F010B8443802406C
:100EF000002809DB00F01F02012191404009800019
:100F000000F1E020C0F8001170470000F0B40E4B73
:100F10001B680C46C3F30223C3F10705042D00D957
:100F20000425191D072901D2002300E0DB1E01263C
:100F300006FA05F1491E214099409E40761E164052
:100F40003143F0BC01F041B90CED00E0064900F07E
:100F5000070208684FF6FF03184040EA0220034AE0
:100F600010430860704700000CED00E00000FA0537
:100F70002DE9F0470E46050065D0DFF81481D8F85A
:100F80000000F7B200F00700B04207D288F8007006
:100F9000D8F8000000F00700B04254D128683D4C5A
:100FA000810712D5400703D5206840F4E050206047
:100FB0002878000703D5206840F46040206020684E
:100FC000A96820F0F000084320602878C0072DD0E1
:100FD000304968680839012812D0022813D0032844
:100FE00011D00968890700292DDA216821F0030151
:100FF00001432160FFF7ECFE814641F2883A0EE0A2
:1010000009688903EFE709688901ECE7FFF7E0FE6B
:10101000A0EB0901514502D90320BDE8F087206803
:10102000696800F00C00B0EB810FEFD1D8F8001028
:10103000404601F00701B14207D90770006800F08F
:101040000700B04201D00120E7E72878400705D526
:101050002068E96820F4E050084320602878000701
:1010600006D52068296920F4604040EAC10020606C
:1010700000F058F82168084AC1F30311515CC840D8
:101080000649086006480068FFF7CAFE0020C4E76A
:10109000003C024008380240182E0008B40000202E
:1010A000AC0000200F2202600C4A136803F0030317
:1010B0004360136803F0F0038360136803F4E053A4
:1010C000C36012684FF4E05303EAD202026104489D
:1010D000006800F007000860704700000838024010
:1010E000003C02400448054900680968044AC1F30D
:1010F0008221515CC8407047B4000020083802408B
:10110000282E00080448054900680968044AC1F30C
:101110004231515CC8407047B4000020083802409A
:10112000282E0008154810B5006810F00C0214486D
:1011300013D04110042A0FD0082A0ED10F4C241FBF
:101140002268236802F03F025B0207D52068C0F3E3
:101150008810A0FB010106E0084610BD2168C1F31C
:101160008811A1FB00010023FFF70AF92168C1F3F0
:101170000141491C4900B0FBF1F010BD08380240A4
:101180000024F4002DE9F84F04006ED02078DFF839
:101190006093C007A9F104054AD009F10400016871
:1011A000C1F38101012908D00068C0F38100022841
:1011B0000AD1D9F80000400206D52868800337D547
:1011C00060680028E1D033E06068B0F5803F10D05F
:1011D000B0F5A02F286810D020F48030286028684F
:1011E00020F4802028606068A8B1FFF7F1FD064672
:1011F0000DE0286840F48030F4E740F48020286057
:10120000F7E700BFFFF7E4FD801B642873D8286868
:101210008003F7D50CE0FFF7DBFD064605E000BFD5
:10122000FFF7D6FD801B6428F0D828688003F7D428
:101230002078DFF8C08280074FF0000A3ED5AC4826
:10124000001D016811F00C0F08D00068C0F3810088
:1012500002280BD1D9F80000400207D42868800783
:1012600016D5E068012800D112E03CE1E068B8B191
:101270000120C8F80000FFF7ABFD064605E000BFFF
:10128000FFF7A6FD801B0228C0D828688007F7D585
:101290002868216920F0F80040EAC10028600DE0CC
:1012A000C8F800A0FFF794FD064604E0FFF790FDA4
:1012B000801B02281FD828688007F7D420780007F1
:1012C00022D58B4E8C486169703671B10121016065
:1012D000FFF77EFD074604E0FFF77AFDC01B0228FA
:1012E00009D830688007F7D50EE0C0F800A0FFF7F6
:1012F0006FFD074605E082E0FFF76AFDC01B02288C
:101300007DD830688007F7D42078400768D5DFF8AB
:10131000E0B100270BF13C0BDBF80000C0000BD460
:10132000DBF8001041F08051CBF80010DBF8000032
:10133000012700F080500090704E3068C00510D436
:10134000306840F480703060FFF742FD009005E0A7
:10135000FFF73EFD0099401A022850D83068C005BA
:10136000F6D5634EA0686C3601280FD0052830688A
:1013700010D020F001003060306820F004003060B0
:10138000A068B8B1FFF724FD00900FE0306840F08E
:101390000100F4E740F004003060F7E7FFF718FDC4
:1013A0000099411A41F28830814268D8306880073C
:1013B000F4D50EE0FFF70CFD009007E0FFF708FD05
:1013C0000099411A41F28830814258D8306880072C
:1013D000F4D42FB1DBF8001021F08051CBF80010CD
:1013E000A069D8B34249091D0968C1F381010229E6
:1013F0004CD00228504607D0C8F8600000E03EE01C
:10140000FFF7E6FC04463DE04746C8F86000FFF7FA
:10141000DFFC064605E000BFFFF7DAFC801B022870
:101420002DD828688001F7D4F4E907010843E16862
:10143000334A490802EB0141A26841EA821108439C
:10144000217C40EA0160217D40EA0171C9F8001069
:1014500001203866FFF7BCFC044606E045E000BF0B
:10146000FFF7B6FC001B022809D828688001F7D5D1
:101470003BE000BFFFF7ACFC001B022802D90320B1
:10148000BDE8F88F28688001F4D42EE00128F7D059
:10149000D9F80000E26900F48001914223D1226A68
:1014A00000F03F0191421ED147F6C071626A0140CF
:1014B000B1EB821F17D1A26A4FF0FF3300F4403125
:1014C00003EB5202B1EB024F0DD194F82C2000F047
:1014D0007061B1EB026F06D194F8301000F0E0407B
:1014E000B0EB017F01D00120CAE70020C8E700006F
:1014F0000438024000004742800E4742007000401E
:101500000000FFFF7047704710B5040003D094F847
:101510003D0010B107E0012010BD002084F83C0020
:10152000204600F01EF8022084F83D00211D2068AE
:1015300000F068FC012084F8460084F83E0084F83E
:101540003F0084F8400084F8410084F8420084F8A9
:10155000430084F8440084F8450084F83D000020EE
:1015600010BD704790F83D10012901D0012070474F
:10157000022180F83D100168CA6842F00102CA6089
:1015800000681149884214D0B0F1804F11D00F4942
:1015900088420ED00E4988420BD00E49884208D0AE
:1015A0000D49884205D00D49884202D00C49884235
:1015B00004D1816801F00701062903D0016841F0D8
:1015C000010101600020704700000140000400405C
:1015D00000080040000C00400004014000400140B1
:1015E00000180040704770B50446006801694FF06C
:1015F0000005C943890715D4C168C943890711D4B7
:10160000E91E01610120207720688069800720465B
:1016100002D0FFF7E7FF04E000F098F8204600F062
:1016200096F8257720680169C943490717D4C1682E
:10163000C943490713D46FF00401016102202077E8
:101640002068806910F4407F204602D0FFF7CAFF6F
:1016500004E000F07BF8204600F079F82577206858
:101660000169C943090716D4C168C943090712D4DF
:101670006FF008010161042020772068C0698007AD
:10168000204602D0FFF7AEFF04E000F05FF82046EE
:1016900000F05DF8257720680169C943C90617D4B1
:1016A000C168C943C90613D46FF010010161082055
:1016B00020772068C06910F4407F204602D0FFF7F1
:1016C00091FF04E000F042F8204600F040F8257752
:1016D00020680169C943C90708D1C168C943C9075E
:1016E00004D1891E0161204600F032F820680169AA
:1016F000C943090609D4C168C943090605D46FF076
:10170000800101612046FFF7FDFE20680169C943A1
:10171000490609D4C168C943490605D46FF04001A0
:101720000161204600F01EF820680169C94389065E
:101730000BD4C168C943890607D46FF02001016149
:101740002046BDE87040FFF7DEBE70BD70477047B1
:1017500000680349884201D1FFF740BB7047000091
:10176000002000407047704770470000F8B50168DE
:1017700004460868CA684B6910F00F0F4FF0000567
:1017800059D003F0010602F49077374365D0C107C2
:1017900005D0D10503D5216C41F001012164410739
:1017A00005D5D90703D0216C41F0020121648107DE
:1017B00005D5D90703D0216C41F00401216401074C
:1017C00007D502F02001314303D0216C41F008011C
:1017D0002164216C00293AD0800604D5900602D5F8
:1017E000204600F0FBFB20684069216CC0F38010AC
:1017F000090700D460B3204600F0BBFB20684069B5
:10180000400621D52068143050E8001F21F0400127
:1018100040E80012002AF5D1A06BA8B16C4901651F
:10182000A06BFFF75DF8002811D0A06B016D01B02F
:10183000BDE8F040084783060FD593060DD5204636
:10184000BDE8F84000F0CABB2046FFF78DFFF8BDA9
:101850002046FFF789FF2564F8BD266B2023012E63
:1018600079D1C60677D5D60675D508684868009040
:101870004869400640D5A16B086840680004000C28
:10188000EAD0A28D8242E7D9E085C869B0F5807FB1
:101890002DD020680C3050E8001F21F4807140E802
:1018A0000012002AF5D12068143050E8001F21F002
:1018B000010140E80012002AF5D12068143050E8F8
:1018C000001F21F0400140E80012002AF5D184F801
:1018D0003E30256320680C3050E8001F21F01001D5
:1018E00040E80012002AF5D1A06BFEF7B0FFA08DF2
:1018F000E18D401A81B229E0A08DE18D401A81B2BC
:10190000E08D0028A8D00029A6D020680C3050E82F
:10191000002F22F4907240E80026002EF5D12068B6
:10192000143050E8002F22F0010240E80026002E7B
:10193000F5D184F83E30256320680C3050E8002F44
:1019400022F0100240E80023002BF5D12046FFF7DB
:101950000AFFF8BDFFE705062BD5150629D594F833
:101960003D002128F5D1A068B0F5805F01D1206944
:10197000B0B1206A411C2162216800784860E08C87
:10198000401E0004000CE084E3D12068C16821F00F
:101990008001C1602068C16841F04001C160D8E7A2
:1019A000206A0088C0F308004860206A801C20621A
:1019B000E5E74006CDD55006CBD5CA68204622F0D3
:1019C0004002CA6084F83D3000F0D8F8C1E700005A
:1019D000CD1E000870B5040004D094F83D00002529
:1019E00010B106E0012070BD84F83C50204600F0A4
:1019F00023F8242084F83D002068C16821F40051B8
:101A0000C160204600F04AFB2068016921F4904142
:101A100001612068416921F02A0141612068C168A3
:101A200041F40051C1602564202084F83D0084F811
:101A30003E00002070BD000070B586B0064614213F
:101A40006846FEF7CDFD24493068884241D12348DD
:101A50000025016841F480210160006800F48020C5
:101A600005901E481038016841F0080101600068C7
:101A7000694600F0080005904FF440700090022085
:101A8000CDE9010503200390072004901448FFF7D7
:101A9000ABF8154C134820604FF0006060604020A8
:101AA000C4E902050001C4E90405A561E5612562F8
:101AB00020466562FEF7F6FF08B1FEF7C6FE7463C6
:101AC000002205212720A663FFF720FA2720FFF731
:101AD0000FFA06B070BD00000048004040380240D8
:101AE000000C024058600240640200207047000071
:101AF00070B5044690F83D00202836D191B38AB3E2
:101B000094F83C00012830D0012084F83C00216288
:101B1000A284E28400252564212084F83D00636BC3
:101B20001348D863636B13481864636B1248D86416
:101B3000606B134605652668606B321DFFF71CF865
:101B400021686FF04000086084F83C502068143031
:101B500050E8001F41F0800140E80012002AF5D152
:101B6000002070BDFFE70120FBE70220F9E700003D
:101B7000271F0008691F0008DD1E00080149012019
:101B800008707047000000207047FEE7F0B587B08E
:101B900014216846FEF724FD3A480024016841F00C
:101BA00004010160016801F004010591016841F040
:101BB00080010160016801F080010591016841F038
:101BC00002010160016801F002010591016841F024
:101BD00008010160016801F008010591016841F008
:101BE00040010160016801F040010591016841F088
:101BF000010101600068244E00F0010044F28105FB
:101C00000590002229463046FFF7DCF81F4F0022DE
:101C100040213846FFF7D6F84FF4005000904FF4BB
:101C20008810CDE9010469461948FEF7DDFF0095EB
:101C30000125CDE90154694630460394FEF7D4FFEF
:101C400040200090CDE90154694638460394FEF7E0
:101C5000CBFF8020CDE90004694638460294FEF7A8
:101C6000C3FF4FF4E85000900220CDE901040320A7
:101C700003900A20049069460648FEF7B5FF07B0B6
:101C8000F0BD00003038024000040240001802405D
:101C90000008024000000240FEE7FEE708B5174CCE
:101CA000002500BFFFF794F8144906469E2208312C
:101CB0001348FFF71DFF08B172B6FEE72078012830
:101CC000FCD12570FFF784F803469E2000900C4855
:101CD00032460CA14430FEF7CBFB094982B24431B5
:101CE0000748FFF705FF08B172B6FEE72078012824
:101CF000FCD125700A2000F0C3FAD3E700000020D1
:101D00002001002054542073746172743D256420B6
:101D100073746F703D2564206C656E3D25640D0AFB
:101D20000000000010B5502080F31188BFF34F8FE2
:101D3000BFF36F8F00F088FF18B104494FF0805057
:101D40000860002080F3118810BD000004ED00E061
:101D500030B593B034216846FEF742FC14210DA83B
:101D6000FEF73EFC1E480025016841F080510160ED
:101D7000006800F0805012901A48016841F4404118
:101D800001600068022400F440401290012000909D
:101D90004FF4A02001906005CDE9064008204FF4E3
:101DA000C071CDE908010421CDE90A100C94684600
:101DB000FFF7E8F908B172B6FEE70DA90F2081E838
:101DC00031004FF48050CDE9100503210DA8FFF735
:101DD000CFF8002801D072B6FEE713B030BD000086
:101DE00040380240007000400248016841F4700130
:101DF0000160704788ED00E00148FFF7F4BB000088
:101E000018050020F0B50268254C264D264E274FB8
:101E1000274B4FF0804CA04209D0604507D0A84224
:101E200005D0B04203D0B84201D0984204D122F08C
:101E3000700E4A6842EA0E02A0421BD0604519D0DB
:101E4000A84217D0B04215D0B84213D0984211D052
:101E5000184DA8420ED0184DA8420BD0174DA842DD
:101E600008D0174DA84205D0164DA84202D0164DF5
:101E7000A84203D122F44075CA682A434D6922F072
:101E800080022A4302608A68C2620A688262A042B3
:101E900001D0984201D10969016301214161F0BD7E
:101EA000000001400004004000080040000C004019
:101EB000000401400040014000440140004801404E
:101EC00000180040001C00400020004010B5806B4E
:101ED0000021C185C184FFF747FC10BD70B5846B3C
:101EE0002068406994F83D10C0F3C01000252129F6
:101EF00004D118B1E584204600F062F820684069FA
:101F000094F83E10C0F38010222904D118B1E58561
:101F1000204600F02EF8206C40F01000206420468F
:101F2000FFF722FC70BD10B50146806B0968096897
:101F3000C90516D40021C1840168143151E8002F6D
:101F400022F0800241E80023002BF5D101680C311A
:101F500051E8002F42F0400241E80023002BF5D168
:101F600010BDFFF70BFE10BD10B5806BFFF70CFE28
:101F700010BD01680C3151E8002F22F4907241E845
:101F80000023002BF5D10168143151E8002F22F015
:101F9000010241E80023002BF5D1016B012909D191
:101FA00001680C3151E8002F22F0100241E80023B3
:101FB000002BF5D1202180F83E10002101637047ED
:101FC00001680C3151E8002F22F0C00241E80023E3
:101FD000002BF5D1202180F83D10704708B590F80E
:101FE0003E10222901D0022008BD82684FF48053A0
:101FF0009A4201D1016921B1816A9A421BD04AB14A
:102000000AE00268816A5268C2F308020A80816AA3
:10201000891C08E0026972B10268526802F07F020E
:102020000A70816A491C8162C18D491E0904090C2C
:10203000C18503D019E002685268F1E70168CA68F7
:1020400022F02002CA600168CA6822F48072CA6065
:1020500001684A6922F001024A61202180F83E109D
:10206000016B012903D0FFF741FD002008BD0021CD
:10207000016301680C3151E8002F22F0100241E8A1
:102080000023002BF5D101680A68D20602D50A6840
:1020900049680091818DFFF766FBE6E770B504465D
:1020A00000680169E26821F440511143016121692E
:1020B000A068E26908436169114308432168CA685E
:1020C00049F20C639A430243CA6020684169A269DD
:1020D00021F440711143416134492068884208D09D
:1020E0003349884205D03349884202D03249884278
:1020F00002D1FFF707F801E0FEF7F4FFE2690023E1
:10210000192164253226B2F5004F626828D0A0FB61
:102110000101930F9200FEF733F90146B0FBF5F091
:102120006FF01802504301EB800006EB0010B0FB8B
:10213000F5F000F0F002B1FBF5F002EB0012B1FB9C
:10214000F5F06FF01803584301EB800006EB001028
:10215000B0FBF5F000F00F0021681044886070BDFE
:10216000A0FB010192185B41FEF70AF90146B0FBA2
:10217000F5F00201B1FBF5F06FF01803584301EBE5
:10218000800006EBC000B0FBF5F000F0F80002EBB9
:102190004002B1FBF5F0584301EB800006EBC000B4
:1021A000B0FBF5F000F00700D6E70000001001409A
:1021B0000014014000180140001C01400148FFF7D5
:1021C000D5BA000020010020FEE70907090E00280B
:1021D00004DB00F1E02080F80014704700F00F00ED
:1021E00000F1E02080F8141D7047000088B0FEF771
:1021F000FDFDFFF7ADFDFFF7C9FC1948002401689C
:1022000041F4001101600068224600F400100790BC
:1022100005210E20FEF77AFE0E20FEF769FE124819
:10222000104901604FF4E121C0E901140C21C460A0
:10223000C0E904418461C461FFF7CCFB08B172B608
:10224000FEE71C2209496846FEF798F90021684616
:1022500000F023F80649486000F01AF8FEE7000095
:10226000303802400048004020010020F42D0008D2
:10227000000000200021842800D0C11C08467047BF
:1022800010B5002800D1012000F052FB002010BD45
:1022900010B500F075FB002010BD30B585B00446C8
:1022A0000D466169B4F90800002910D0A16971B127
:1022B000FFF7E0FF6269A1690192029100902B464D
:1022C00022692168606800F08FFC049010E0FFF73D
:1022D000D1FF04A901910090208A2B4682B2216887
:1022E000606800F04BFC012802D005B0002030BD32
:1022F000049805B030BD00002DE9F04104460F46BA
:10230000194EF5683068001D00F044FA48B930688D
:10231000012190F82C0001FA00F0316921EA000057
:102320003061B4F1FF3F07D137B13068BDE8F0410B
:10233000011D0E4800F075BA2C4430684460AC4270
:1023400006D23068011DB06BBDE8F04100F04EBA16
:102350003068011D706B00F049FAB06A844200D207
:10236000B462BDE8F0810000B80000203C06002007
:1023700070B5044600F062FA1C4DA868401CA860C5
:10238000286810B1686938B10CE02C60A868012891
:1023900008D100F0EDF805E02868E16AC06A8842DB
:1023A00000D82C60686A401C6862E06A01212A69D2
:1023B0008140114329610E4900EB800001EB800050
:1023C000211D00F02EFA00F059FA686900280CD09F
:1023D0002868E16AC06A884207D206494FF08050F7
:1023E0000860BFF34F8FBFF36F8F70BDB800002040
:1023F0006005002004ED00E070B50D4C6068002819
:1024000015D00C4E00F01AFAF068C568281D00F0CF
:10241000C1F9A068401EA0606068401E606000F0C6
:102420002DFA284600F008F860680028EAD170BD4F
:10243000B80000202806002010B5044694F851107A
:1024400000290BD0012911D0022914D0502080F38B
:102450001188BFF34F8FBFF36F8FFEE7206B00F043
:1024600023FA2046BDE8104000F01EBA2046BDE821
:10247000104000F019BA10BD4FF47051104810F020
:10248000070F06D0C01D20F007000D49411AC1F505
:1024900070510C4A1060002353600144083921F048
:1024A0000701183A11604B600B600B1A4360016022
:1024B0004068906050604FF00040506170470000ED
:1024C000500600200C010020074E4FF08054074DAD
:1024D000FFF792FF30680128FAD92C60BFF34F8FC5
:1024E000BFF36F8FF4E700006005002004ED00E00B
:1024F0002DE9F0478146099E089D0A9C9A46521E86
:10250000206B00EB820020F00708002700290CD088
:10251000002023180A5C83F834200A5C12B1401CA6
:102520001028F6D384F8437001E084F83470072D46
:1025300000D30625E5626564A764201D00F053F909
:1025400004F1180000F04FF92461C5F10700A06103
:102550006462E76484F8507052464946404600F091
:1025600003F92060002E00D03460BDE8F087000041
:1025700070B500240F4D04EB840005EB800000F0E3
:1025800027F9641C072CF6D30B4800F021F90B48FF
:1025900000F01EF90A4800F01BF90A4800F018F98B
:1025A000094800F015F90948034941631431816372
:1025B00070BD000060050020EC0500200006002032
:1025C00014060020280600203C060020B800002049
:1025D00010B4144900E011460A688242FBD34B68EC
:1025E00003EB010C844503D1406818444860084659
:1025F0000C68D0F804C00CEB0003A3420CD10A4BCA
:102600001B689A4206D05268624442600A681268A7
:10261000026002E0036000E00260814200D00860D6
:1026200010BC70470C010020F40000200749486BE3
:102630000068002805D0486BC068C06840688862A0
:1026400070474FF0FF30886270470000B8000020EC
:102650000A484068B0F1FF3F07D0502080F311884E
:10266000BFF34F8FBFF36F8FFEE7502080F31188C9
:10267000BFF34F8FBFF36F8FFEE700001401002000
:102680002DE9F0410546002600F0BEF9344F3868C8
:1026900008B9FFF7F1FE7869054251D19DB10835BF
:1026A00015F0070F0FD005F00700C0F10800054432
:1026B00015F0070F07D0502080F31188BFF34F8F1C
:1026C000BFF36F8FFEE7002D3AD07868854237D888
:1026D00024490846046801E0214604466068A8428F
:1026E00002D220680028F7D13868844228D00868D0
:1026F00000F10806206808606068411B10290FD9A6
:10270000601910F0070F07D0502080F31188BFF335
:102710004F8FBFF36F8FFEE741606560FFF758FF93
:1027200061687868401A7860BA68904200D2B860F0
:1027300078690843606000202060F868401CF860F9
:1027400000F0ECFA16F0070F07D0502080F3118844
:10275000BFF34F8FBFF36F8FFEE73046BDE8F081C8
:10276000F40000200C010020001F4FF08073036074
:10277000001F21F001010160001F054901601438AC
:102780000260001F6FF002010160203870470000F6
:10279000512600080169436882689A60836842682C
:1027A0005A604A68824201D182684A60002202610E
:1027B0000868401E0860086870470000034B03600B
:1027C00003F154000860802010607047C4020020AC
:1027D00000F1080141604FF0FF328260C160016189
:1027E00000210160704700210161704710B4D1F8E9
:1027F00000C0BCF1FF3F02D000F1080202E0026914
:1028000004E01A4653681C686445FAD953684B6063
:1028100099608A60516008610168491C016010BCC0
:10282000704742684A6093688B6093685960916012
:1028300008610168491C016070470000502080F366
:102840001188BFF34F8FBFF36F8F0A494868401C50
:10285000486001280CD10848006810F0FF0F07D02D
:10286000502080F31188BFF34F8FBFF36F8FFEE7C7
:10287000704700001401002004ED00E00949486899
:10288000002806D0401E4860002801D180F311883E
:102890007047502080F31188BFF34F8FBFF36F8FC5
:1028A000FEE700001401002070B500282AD0A0F136
:1028B0000804154D60686969084207D1502080F30B
:1028C0001188BFF34F8FBFF36F8FFEE722683AB1D5
:1028D000502080F31188BFF34F8FBFF36F8FFEE757
:1028E0008843606000F090F8606869680844686038
:1028F0002046FFF76DFE2869401C2861BDE8704046
:1029000000F00CBA70BD0000F40000204FF0E02091
:1029100000210161816105494FF47A720968B1FBB8
:10292000F2F1491E4161072101617047B4000020A6
:1029300010B502460020002A12D00F48006B38B1B3
:10294000502080F31188BFF34F8FBFF36F8FFEE7E6
:1029500000F05AF800211046FFF7CEFC00F0DEF937
:10296000002807D105494FF080500860BFF34F8F12
:10297000BFF36F8F10BD0000B800002004ED00E031
:1029800010B586B000240594049403AA04A905A8F0
:10299000FFF714FF05980499019102900023009419
:1029A00015A11748039A00F01FF91649C86208B12B
:1029B000012000E0002001280AD0B0F1FF3F19D12A
:1029C000502080F31188BFF34F8FBFF36F8FFEE766
:1029D000502080F31188BFF34F8FBFF36F8F4FF0FC
:1029E000FF30886201204861CC6006B0BDE810402D
:1029F00000F042B806B010BD49444C45000000004C
:102A0000C9240008B80000200248016B491C01637A
:102A100070470000B8000020154A106B002802D053
:102A20000120D06170470020D0611069B0FA80F0B9
:102A3000C0F11F000F4900EB800051F8203073B146
:102A400001EB800041684968416000F10803994248
:102A500001D1496841604068C068106070475020EB
:102A600080F31188BFF34F8FBFF36F8FFEE7000035
:102A7000B80000206005002010B582B03848016819
:102A8000384A914207D1502080F31188BFF34F8F0D
:102A9000BFF36F8FFEE700683349884207D15020AB
:102AA00080F31188BFF34F8FBFF36F8FFEE72F497D
:102AB00008780190FF200870087800909DF80000C9
:102AC0009DF8002000F0F000904207D0502080F3E5
:102AD0001188BFF34F8FBFF36F8FFEE79DF80000A3
:102AE000234C00F0500020700720A0609DF80000EB
:102AF00010F0800F0BD0A068401EA0609DF8000071
:102B0000400000909DF8000010F0800FF3D1A06805
:102B1000032807D0502080F31188BFF34F8FBFF3F5
:102B20006F8FFEE74FF44070A06001980870114865
:102B3000016841F470010160016841F07041016079
:102B4000FFF7E4FE00206060FDF7BEFB0A48016865
:102B500041F040410160FDF7A3FB02B0002010BD31
:102B600000ED00E071C20F4170C20F4100E400E0CF
:102B70001401002020ED00E034EF00E02DE9F04FDB
:102B800085B081460F9F0E9E8A4690469B464FEA2F
:102B90008800FFF775FD054628000AD05420FFF78E
:102BA0006FFD04460CB1256304E02846FFF77CFE68
:102BB00000E000249CB1002084F8510003905B46A3
:102BC000424651460197009602944846FFF790FC12
:102BD0002046FFF7CDFB05B00120BDE8F08F05B022
:102BE0004FF0FF30BDE8F08F70B586B00646DDF8D7
:102BF00028C00C9C0B98002816D0ECB154250495E5
:102C00002063022084F85100002005AD0390CDF828
:102C100000C0019502943046FFF76AFC2046FFF79A
:102C2000A7FB059806B070BD502080F31188BFF354
:102C30004F8FBFF36F8FFEE7502080F31188BFF3F3
:102C40004F8FBFF36F8FFEE72DE9F0470026314F1E
:102C5000386B002805D0B869401CB8613046BDE823
:102C6000F087F868451CFD609DB9786B006838B145
:102C7000502080F31188BFF34F8FBFF36F8FFEE7B3
:102C8000786BB96B7963B863386A401C3862FFF7B8
:102C9000CDFCB86ADFF8808085420FD34FF0010980
:102CA000786B006838B1786BC068C468606885422A
:102CB00012D2B86202E04FF0FF30B8623868C06AE2
:102CC00000EB800058F82000012800D90126F8699F
:102CD0000028C3D00126C1E7201DFFF75BFDA06AD5
:102CE00018B104F11800FFF755FDE16A3A6909FAD5
:102CF00001F01043386101EB810008EB8000211DD9
:102D0000FFF78FFDE06A3968C96A8842C8D3012697
:102D1000C6E70000B8000020600500202DE9F0475C
:102D20000024A0462D4D286B002807D0FFF786FD14
:102D3000286B401E2863286B40B149E0502080F387
:102D40001188BFF34F8FBFF36F8FFEE7A86800288D
:102D50003ED0234F3868012600B3A7F1B409F868C4
:102D6000C46804F11800FFF715FD201DFFF712FDE0
:102D7000E06A2A6906FA00F11143296100EB80003C
:102D800009EB8000211DFFF74CFDE06A2968C96A44
:102D9000884200D3EE6138680028E0D10CB1FFF71B
:102DA00045FCAC6944B1FFF74FFF00B1EE61641E12
:102DB000002CF8D10020A861E86948B14FF0010863
:102DC00008494FF080500860BFF34F8FBFF36F8FFB
:102DD000FFF754FD4046BDE8F0870000B800002032
:102DE0001406002004ED00E04FF04070E1EE100A00
:102DF00070470000302E00089D1C000800000000F5
:102E00000000000080000000000000000000000042
:102E1000000610160006101600000000000000005A
:102E20000102030406070809000000000102030470
:102E300064656661756C745461736B005C2E000888
:102E40000000002020010000140200087C2F000870
:102E500020010020904D000030020008000000001A
:102E60000000000031202A2A2A2A554152545F547A
:102E7000776F426F6172647320636F6D6D756E69F9
:102E8000636174696F6E206261736564206F6E2088
:102E9000444D412A2A2A2A2032202A2A2A2A554108
:102EA00052545F54776F426F6172647320636F6D29
:102EB0006D756E69636174696F6E206261736564BC
:102EC000206F6E20444D412A2A2A2A2033202A2AA4
:102ED0002A2A554152545F54776F426F617264736E
:102EE00020636F6D6D756E69636174696F6E2062CA
:102EF00061736564206F6E20444D412A2A2A2A207E
:102F00000D0A000001000000100000000000000099
:102F10000024F40000000000000000000000000099
:102F200000000000000000000000000000000000A1
:102F30000000000000000000000000000000000091
:102F40000000000000000000000000000000000081
:102F50000000000000000000000000000000000071
:102F60000000000000000000000000000000000061
:0C2F700000000000AAAAAAAA00000000AD
:04000005080001D915
:00000001FF
